S00D000066696E616C2E737265630D
S11300000C94A7000C94C4000C94C4000C94C40079
S11300100C94C4000C94C4000C94C4000C94C4004C
S11300200C94C4000C94C4000C94C4000C94C4003C
S11300300C94C4000C94C4000C94C4000C94C4002C
S11300400C94C4000C94C4000C94C4000C94C4001C
S11300500C94C40000407A10F35A00A0724E1809A0
S11300600010A5D4E80000E87648170000E40B541B
S1130070020000CA9A3B000000E1F50500008096EA
S11300809800000040420F000000A086010000001C
S1130090102700000000E8030000000064000000D6
S11300A000000A00000000000100000000002C769F
S11300B0D888DC674F0823DFC1DFAE59E1B1B796BA
S11300C0E5E3E453C63AE651997696E8E6C2842617
S11300D0EB898C9B62ED407C6FFCEFBC9C9F40F2F3
S11300E0BAA56FA5F490055A2AF75C936B6CF9676F
S11300F06DC11BFCE0E40D47FEF520E6B500D0ED34
S1130100902E0300943577050080841E080000209B
S11301104E0A000000C80C333333330F986E128339
S11301201141EF8D2114893BE65516CFFEE6DB180D
S1130130D1844B381BF77C1D901DA4BBE4242032D2
S113014084725E228100C9F124ECA1E53D271124CB
S11301501FBECFE5D8E0DEBFCDBF12E0A0E6B0E021
S1130160EEE6F7E102C005900D92A430B107D9F78D
S113017022E0A4E0B2E001C01D92A738B207E1F783
S11301800E9420040C94B50B0C9400008AB38ABB23
S113019087E886B9089598B39F70282F207F922B03
S11301A098BB98B39E7F98BB98B3926098BB32E09B
S11301B03A95F1F700C098B39D7F98BBEFE8F1E062
S11301C03197F1F700C0000028B3F0E18F9FC00120
S11301D01124922F9F70892B88BB88B3826088BBBF
S11301E032E03A95F1F700C088B38D7F88BB8FE980
S11301F09FE00197F1F700C00000089598B39F7045
S1130200282F207F922B98BB98B3916098BB98B30A
S1130210926098BB32E03A95F1F700C098B39D7FA5
S113022098BBEFE8F1E03197F1F700C0000028B384
S1130230F0E18F9FC0011124922F9F70892B88BBFE
S113024088B3826088BB32E03A95F1F700C088B386
S11302508D7F88BB8FE99FE00197F1F700C0000014
S113026008958FEF87BB8FE39CE90197F1F700C0F6
S1130270000083E30E94CB0082E30E94CB0088E26B
S11302800E94CB008CE00E94CB0086E00E94CB0051
S113029081E00E94CB008FE99FE00197F1F700C055
S11302A0000080E80E94CB0008950F931F93CF9322
S11302B0DF938C01C0E0D0E003C00E94FE002196D1
S11302C0F801EC0FFD1F80818111F7CFDF91CF91F1
S11302D01F910F91089581E00E94CB008FE99FE068
S11302E00197F1F700C0000080E80E94CB00089558
S11302F080EF84BB8FEF85BB85B38F7085BB000017
S113030083B38F70809315028F30B1F78FE39CE92C
S11303100197F1F700C0000083B38F70809315023A
S11303208F30A1F39FEF29EF80E09150204080406F
S1130330E1F700C0000083B38F70809315028F3003
S113034029F38FEE85BB000083B38F708093150271
S11303508F3019F01092180227C08FED85BB000072
S113036083B38F70809315028F3021F081E08093E6
S113037018021AC08FEB85BB000083B38F70809383
S113038015028F3021F082E0809318020DC08FE7B0
S113039085BB000083B38F70809315028F3009F4FE
S11303A0A7CF83E080931802809115028E3059F410
S11303B0E0911802F0E0EE0FFF1FEE0FFF1FE05A6E
S11303C0FF4F808108958D3059F4E0911802F0E0D8
S11303D0EE0FFF1FEE0FFF1FE05AFF4F81810895BC
S11303E08B3059F4E0911802F0E0EE0FFF1FEE0F8E
S11303F0FF1FE05AFF4F82810895E0911802F0E058
S1130400EE0FFF1FEE0FFF1FE05AFF4F8381089589
S113041082E18BBB2FEF80E792E021508040904037
S1130420E1F700C0000086E08BBB2FEF80E792E08D
S1130430215080409040E1F700C000008CE08BBB6D
S11304402FEF80E792E0215080409040E1F700C018
S1130450000088E18BBB2FEF80E792E021508040C1
S11304609040E1F700C00000089580E487B986B1A8
S1130470806486B9349BFECF86B1806186B984B12D
S113048095B108950E94C6000E9435029093170208
S113049080931602BC01990F880B990B0E94E40704
S11304A026EF38E24CE950E40E9499082CE732EF39
S11304B040E35BE30E94FE0620E030E040E251E4CA
S11304C00E94700720E030E040ED51E40E94FE06F7
S11304D0609311027093120280931302909314029A
S11304E00895CF92DF92EF92FF9210921002109231
S11304F00F0210920E0280E033C092B3906492BB5C
S11305009AE19A95F1F700C0859B11C047E050E04D
S1130510481B510921E030E002C0220F331F4A95E5
S1130520E2F790911002292B2093100211C047E0AA
S113053050E0481B510921E030E002C0220F331F74
S11305404A95E2F7209590911002292320931002F6
S113055092B39F7B92BB9DE09A95F1F700008F5F69
S1130560883058F280E03EC092B3906492BB9AE126
S11305709A95F1F700C0859B16C04FE050E0481BE8
S1130580510921E030E002C0220F331F4A95E2F7FF
S113059040910E0250910F02242B352B30930F0201
S11305A020930E0217C04FE050E0481B510921E090
S11305B030E002C0220F331F4A95E2F720953095B0
S11305C040910E0250910F022423352330930F02E1
S11305D020930E0292B39F7B92BB9DE09A95F1F714
S11305E000008F5F803108F4BFCF80910E0290919C
S11305F00F029695879590930F0280930E02609157
S1130600100260FF05C0906890930F0280930E0261
S113061066956093100270E080E090E00E94E40729
S113062024E632EA48E650E40E9499086B017C0112
S113063060910E0270910F0280E090E00E94E20748
S113064023E33BED4CE856E40E9470079B01AC01A8
S1130650C701B6010E94FF06FF90EF90DF90CF9094
S1130660089580910902811107C08BB380628BBB0E
S113067081E08093090208958BB38F7D8BBB109228
S11306800902089580910802811107C08BB3806428
S11306908BBB81E08093080208958BB38F7B8BBB67
S11306A010920802089580910702811107C08BB34C
S11306B080688BBB81E08093070208958BB38F77AA
S11306C08BBB10920702089580917000882331F04B
S11306D082B3816082BB10927000089582B38E7FD2
S11306E082BB81E08093700008958091060281119D
S11306F007C082B3826082BB81E0809306020895C2
S113070082B38D7F82BB109206020895FC01019092
S11307100020E9F73197E81BF90BDC01AE0FBF1F8E
S11307206C933196E80FF91F108208950F931F936D
S1130730CF93DF93CDB7DEB72A970FB6F894DEBF19
S11307400FBECDBF1A821982FE01339688E0DF0105
S11307501D928A95E9F70E946B0180E80E94CB0004
S113076081E790E00E94550181EC0E94CB0083E870
S113077090E00E9455010E94780190ED980F9A3004
S1130780A8F4682FCE0101960E9486030E946B0193
S1130790CE0101960E945501BFEF24E38CE0B150D5
S11307A020408040E1F700C00000E5CF8B3219F70C
S11307B0CE0101960E9426099093050280930402BB
S11307C00E9464030E9408020E9442026093110284
S11307D07093120280931302909314020DE712E0B7
S11307E022E043E00E9406090E946B01C8010E94B6
S11307F055016091040270910502072E000C880BCC
S1130800990B0E94E4072091110230911202409149
S11308101302509114020E946B0788239CF60E94D5
S113082064038FE890E00E9455012A960FB6F8946D
S1130830DEBF0FBECDBFDF91CF911F910F91089501
S1130840CF93DF93CDB7DEB7C456D1090FB6F89472
S1130850DEBF0FBECDBF9FEF91BB82B38F7B82BB48
S11308609ABB1BBA0E94310180E80E94CB0084E944
S113087090E00E9455012FEF83ED90E321508040DA
S11308809040E1F700C000000E946B018CE990E009
S11308900E9455012FEF8DE399E421508040904050
S11308A0E1F700C000000E946B0180E80E94CB00C9
S11308B08BEA90E00E94550181EC0E94CB0087EB0B
S11308C090E00E9455012FEF8DE399E42150804080
S11308D09040E1F700C000000E946B0180E80E9494
S11308E0CB0086EC90E00E94550181EC0E94CB0085
S11308F084ED90E00E9455012FEF8DE399E421509F
S113090080409040E1F700C000000E946B0184EE3B
S113091090E00E94550181EC0E94CB008DEE90E0A6
S11309200E9455012FEF83ED90E3215080409040C9
S1130930E1F700C000000E9471026B017C0160932A
S11309400A0270930B0280930C0290930D0220E034
S113095030E040E751E40E9494081816C4F08E0178
S11309600F5F1F4F22E042E0C701B6010E94060953
S11309700E946B01C8010E9455012FEF81EE94E0A3
S1130980215080409040E1F700C00000D4CF0E9485
S11309906B0180E80E94CB008EEF90E00E9455012D
S11309A02FEF83ED90E3215080409040E1F700C0A9
S11309B000000E946B018FE091E00E9455010E94AB
S11309C075030E9431030E9478018133E1F70E948C
S11309D075030E946B0180E80E94CB008FE191E0D7
S11309E00E9455010E946B0180E80E94CB008DE2B9
S11309F091E00E94550181EC0E94CB008DE391E0CF
S1130A000E9455010E947801813309F0FAC00E94C6
S1130A106B0180E80E94CB0080E591E00E945501C3
S1130A200E9464030E9431030E9408020E94420251
S1130A306093110270931202809313029093140234
S1130A400DE712E022E043E00E9406090E946B01D8
S1130A50609111027091120280911302909114021C
S1130A6020E030E048E453E40E9494081816B4F4FB
S1130A700E94640380E691E00E9455010E94750380
S1130A800E946B0180E791E00E94550181EC0E9475
S1130A90CB008BE791E00E94550105C08DE792E001
S1130AA00E945501C1CF0E9478018133E1F70E9471
S1130AB075030E946B0180E80E94CB0084E891E0FA
S1130AC00E94550181EC0E94CB008EE891E00E94C7
S1130AD055012FEF8DE399E4215080409040E1F7D8
S1130AE000C000000E946B0180E80E94CB008CE9EA
S1130AF091E00E94550181EC0E94CB0086EA91E0CE
S1130B000E9455012FEF8DE399E4215080409040DD
S1130B10E1F700C000000E947801813359F50E947A
S1130B2042030E946B0180E80E94CB0087EB91E0B6
S1130B300E94550181EC0E94CB0085EC91E00E945B
S1130B4055010E9478018233E1F70E9442030E941A
S1130B506B0180E80E94CB0088ED91E00E94550172
S1130B602FEF8DE399E4215080409040E1F700C0DD
S1130B700000D1CF823379F60E9496030E94750358
S1130B800E946B0180E80E94CB0084E891E00E94FF
S1130B90550181EC0E94CB008EE891E00E94550142
S1130BA00E9478018133E1F70E9475030E94420399
S1130BB00E946B0180E80E94CB0087EB91E00E94C9
S1130BC0550181EC0E94CB0085EC91E00E94550117
S1130BD00E9478018233E1F70E9442030E946B0174
S1130BE080E80E94CB0088ED91E00E9455012FEF30
S1130BF08DE399E4215080409040E1F700C000006B
S1130C008ACF823309F0FECE0E946B0180E80E94F5
S1130C10CB0082EE91E00E9455010E9464030E9481
S1130C2031030E9408020E944202609311027093F1
S1130C30120280931302909314020DE712E022E053
S1130C4043E00E9406090E946B01609111027091B9
S1130C501202809113029091140220E030E04AE7DE
S1130C6053E40E9494081816B4F40E94640383EFBA
S1130C7091E00E9455010E9475030E946B0180E778
S1130C8091E00E94550181EC0E94CB008BE791E03A
S1130C900E94550105C08DE792E00E945501C1CF25
S1130CA00E9478018133E1F70E9475030E946B0171
S1130CB080E80E94CB0084E891E00E94550181EC19
S1130CC00E94CB008EE891E00E9455012FEF8DE346
S1130CD099E4215080409040E1F700C000000E9458
S1130CE06B0180E80E94CB008CE991E00E945501E1
S1130CF081EC0E94CB0086EA91E00E9455012FEF1F
S1130D008DE399E4215080409040E1F700C0000059
S1130D100E947801813359F50E9453030E946B01AC
S1130D2080E80E94CB0087EB91E00E94550181ECA2
S1130D300E94CB0085EC91E00E9455010E9478014D
S1130D408233E1F70E9453030E946B0180E80E9402
S1130D50CB0088ED91E00E9455012FEF8DE399E4DB
S1130D60215080409040E1F700C00000D1CF823391
S1130D7079F60E9496030E9475030E946B0180E835
S1130D800E94CB0084E891E00E94550181EC0E940E
S1130D90CB008EE891E00E9455010E9478018133D6
S1130DA0E1F70E9475030E9453030E946B0180E8DF
S1130DB00E94CB0087EB91E00E94550181EC0E94D8
S1130DC0CB0085EC91E00E9455010E9478018233AA
S1130DD0E1F70E9453030E946B0180E80E94CB005C
S1130DE088ED91E00E9455012FEF8DE399E42150A5
S1130DF080409040E1F700C000008ACF5058BB27E4
S1130E00AA270E9416070C945A080E944C0838F02E
S1130E100E94530820F039F49F3F19F426F40C94EF
S1130E2049080EF4E095E7FB0C944308E92F0E946F
S1130E306B0858F3BA17620773078407950720F005
S1130E4079F4A6F50C948D080EF4E0950B2EBA2FC8
S1130E50A02D0B01B90190010C01CA01A0011124BC
S1130E60FF27591B99F0593F50F4503E68F11A1668
S1130E70F040A22F232F342F4427585FF3CF4695F9
S1130E8037952795A795F0405395C9F77EF41F161B
S1130E90BA0B620B730B840BBAF09150A1F0FF0FE5
S1130EA0BB1F661F771F881FC2F70EC0BA0F621FD1
S1130EB0731F841F48F4879577956795B795F795C1
S1130EC09E3F08F0B0CF9395880F08F09927EE0F56
S1130ED09795879508950E941F0808F481E0089566
S1130EE00E9484070C945A080E94530858F00E94E8
S1130EF04C0840F029F45F3F29F00C944308511149
S1130F000C948E080C9449080E946B0868F399238A
S1130F10B1F3552391F3951B550BBB27AA276217F1
S1130F207307840738F09F5F5F4F220F331F441FFE
S1130F30AA1FA9F335D00E2E3AF0E0E832D0915032
S1130F405040E695001CCAF72BD0FE2F29D0660F1F
S1130F50771F881FBB1F261737074807AB07B0E862
S1130F6009F0BB0B802DBF01FF2793585F4F3AF068
S1130F709E3F510578F00C9443080C948E085F3F13
S1130F80E4F3983ED4F3869577956795B795F795EE
S1130F909F5FC9F7880F911D9695879597F90895D6
S1130FA0E1E0660F771F881FBB1F62177307840772
S1130FB0BA0720F0621B730B840BBA0BEE1F88F781
S1130FC0E0950895E89409C097FB3EF490958095C8
S1130FD0709561957F4F8F4F9F4F9923A9F0F92FFB
S1130FE096E9BB279395F695879577956795B79579
S1130FF0F111F8CFFAF4BB0F11F460FF1BC06F5F5F
S11310007F4F8F4F9F4F16C0882311F096E911C070
S1131010772321F09EE8872F762F05C0662371F091
S113102096E8862F70E060E02AF09A95660F771FA5
S1131030881FDAF7880F9695879597F90895990F81
S11310400008550FAA0BE0E8FEEF16161706E8078E
S1131050F907C0F012161306E407F50798F0621BAF
S1131060730B840B950B39F40A2661F0232B242B84
S1131070252B21F408950A2609F4A140A6958FEFA3
S1131080811D811D089597F99F6780E870E060E0F5
S113109008959FEF80EC089500240A94161617060D
S11310A018060906089500240A9412161306140655
S11310B005060895092E0394000C11F4882352F0B8
S11310C0BB0F40F4BF2B11F460FF04C06F5F7F4F70
S11310D08F4F9F4F089557FD9058440F551F59F057
S11310E05F3F71F04795880F97FB991F61F09F3F11
S11310F079F087950895121613061406551FF2CF3A
S11311004695F1DF08C0161617061806991FF1CF89
S113111086957105610508940895E894BB276627B0
S11311207727CB0197F908950E941F0808F48FEFE1
S113113008950E94AC080C945A080E944C0838F098
S11311400E94530820F0952311F00C9443080C944A
S1131150490811240C948E080E946B0870F3959F23
S1131160C1F3950F50E0551F629FF001729FBB279A
S1131170F00DB11D639FAA27F00DB11DAA1F649F36
S11311806627B00DA11D661F829F2227B00DA11DE9
S1131190621F739FB00DA11D621F839FA00D611D6F
S11311A0221F749F3327A00D611D231F849F600D90
S11311B0211D822F762F6A2F11249F5750409AF0B9
S11311C0F1F088234AF0EE0FFF1FBB1F661F771F45
S11311D0881F91505040A9F79E3F510580F00C9410
S11311E043080C948E085F3FE4F3983ED4F386954D
S11311F077956795B795F795E7959F5FC1F7FE2BB0
S1131200880F911D9695879597F90895EF920F93FE
S11312101F93CF93DF93E80147FD02C034E001C080
S113122034E1042E000C550B57FF03C05195419532
S11312305109E32E022F242FAE010E944C09CE0146
S1131240DF91CF911F910F91EF900895FC018827B2
S11312509927E89421912032E9F3293010F02E30B7
S1131260C8F32B3241F02D3239F4689404C00E9443
S11312704409820F911D219120532A30C0F31EF49A
S1131280909581959F4F08957AE0979F902D879F21
S1131290802D910D11240895A9E0B0E0E2E5F9E074
S11312A00C94840B6A01122FB02E2BE3201720F02C
S11312B0FF24F394F00E02C02CE3F22E0F2D27E04E
S11312C0AE014F5F5F4F0E94A60ABC014981842F83
S11312D08970813031F0E1FC06C0E0FE06C090E286
S11312E005C09DE203C09BE201C090E05E2D5071F9
S11312F043FF3CC0911102C083E001C084E0811728
S113130018F4212F281B01C020E051110BC0F60155
S1131310822F30E2882319F031938150FBCFC20E23
S1131320D11C20E0992329F0D6019C93F601319633
S11313306F01C6010396E2FE0AC03EE4D6013C9367
S113134041E411964C93119712963C9306C03EE6E5
S1131350F601308341E641833283FC01322F40E2BF
S1131360332309F442C041933150FACF42FF44C0C1
S1131370911102C083E001C084E0811718F4212F89
S1131380281B01C020E051110BC0F601822F30E26E
S1131390882319F031938150FBCFC20ED11C20E079
S11313A0992329F0D6019C93F60131966F01C60169
S11313B00396E2FE0BC039E4D6013C933EE4119659
S11313C03C93119736E412963C9307C039E6F60134
S11313D030833EE6318336E63283FC01322F40E22D
S11313E0332319F041933150FBCFFC01E20FF11D7F
S11313F010828EEF9FEFA6C021E030E0911102C071
S113140020E030E0161617061CF4FB01319602C0EA
S1131410E1E0F0E02E0F3F1FBB2021F0EB2DF0E0C8
S1131420319602C0E0E0F0E02E0F3F1FE12FF0E024
S11314302E173F071CF4121B212F01C020E08E2D14
S1131440887159F4F601822F30E2882319F0319320
S11314508150FBCFC20ED11C20E0992329F0D60184
S11314609C93F60131966F0151110BC0F601822F46
S113147090E3882319F091938150FBCFC20ED11CC5
S113148020E00F2D060F9A81342F307144FF03C0E2
S1131490913309F40150101624F4093018F008E0CF
S11314A001C001E0AB0177FF02C040E050E0FB0166
S11314B0E41BF50BA1E0B0E0AC0FBD1FEA0FFB1F6E
S11314C08EE2A82E4B01801A91080B2D10E0119585
S11314D0019511094F3FBFEF5B0721F4D601AC9290
S11314E011966D01641775072CF08416950614F493
S11314F0818101C080E3415051093196D601119692
S11315007D014017510724F0D6018C936701E2CF87
S11315106417750739F4963320F4953319F43111AF
S113152001C081E3F6018083F701822F90E28823D2
S113153019F091938150FBCFF701E20FF11D108256
S113154080E090E02996ECE00C94A00B283008F0A1
S113155027E03327DA01990F311D87FD916000964A
S11315606105710539F432602E5F3D9330E32A95AD
S1131570E1F708959F3F30F080387105610509F067
S11315803C5F3C5F3D93913008F08068911DDF9390
S1131590CF931F930F93FF92EF92192F987F9695F5
S11315A0E92F96959695E90FFF27E255FF4F992766
S11315B03327EE24FF24A701E7010590089407943C
S11315C028F4360FE71EF81E491F511D660F771FBA
S11315D0881F991F0694A1F70590079428F4E70E35
S11315E0F81E491F561FC11D770F881F991F661FBC
S11315F00694A1F70590079428F4F80E491F561F86
S1131600C71FD11D880F991F661F771F0694A1F766
S11316100590079420F4490F561FC71FD81F990F30
S1131620661F771F881F0694A9F784911095177079
S113163041F0D695C79557954795F794E7941A9531
S1131640C1F7E4E5F0E06894159015913591659142
S1131650959105907FE27395E118F10A430B560BBF
S1131660C90BD009C0F7E10CF11E431F561FC91F57
S1131670D01D7EF4703311F48A95E6CFE8940150BE
S113168030F0080F0AF40027021708F4202F2395DE
S1131690022F7A3328F079E37D932A95E9F710C075
S11316A07D932A9589F606949795679537951795AE
S11316B01794E118F10A430B560BC90BD00998F0A3
S11316C023957E9173957A3308F070E37C9320130D
S11316D0B8F77E9170617D9330F0839571E37D93CB
S11316E070E32A95E1F71124EF90FF900F911F9179
S11316F0CF91DF91992787FD909508952F923F927E
S11317004F925F926F927F928F929F92AF92BF920D
S1131710CF92DF92EF92FF920F931F93CF93DF93B9
S1131720CDB7DEB7CA1BDB0B0FB6F894DEBF0FBE16
S1131730CDBF09942A88398848885F846E847D8463
S11317408C849B84AA84B984C884DF80EE80FD8065
S11317500C811B81AA81B981CE0FD11D0FB6F894DB
S1111760DEBF0FBECDBFED010895F894FFCF9C
S113176E37343143383532303936333D2F782D2BDB
S113177E01456E7465722054656D70757261747571
S113178E726500616E64207072657373202B006441
S113179E6F6E650077656C636F6D650057652061CC
S11317AE7265207465616D20313800546869732048
S11317BE6973206F7572004B697468756C2074724E
S11317CE6561636C650020616E64206A616767659C
S11317DE72792000204D616B696E67204D616368DC
S11317EE696E6500707574207361702000746F20CB
S11317FE74686520636F6E7461696E657200636FE1
S113180E6E7461696E65722066696C6C65640070D5
S113181E72657373203120746F20636F6E7400735E
S113182E656C656374206F7074696F6E0070726599
S113183E737320313A20747269636C65007072653B
S113184E7373203220746F206A756767657279002E
S113185E747269636C65206372656174696E670086
S113186E74726963636C6520637265617465640088
S113187E7072657373203120746F00636F6E7469B8
S113188E6E75650050726573732031203A00546F83
S113189E206F70656E2076616C766500507265738C
S11318AE732032203A00546F20696E63726561733F
S11318BE652074656D700056616C766520697320C1
S11318CE6F70656E007072657373323A636C6F730A
S11318DE652076616C7665005468616E6B20596F75
S11318EE75006A61676765727920637265617469F0
S11318FE6E67006A616767657279206372656174E9
S107190E6564000008
S9030000FC
